{
  "_format": "hh-sol-artifact-1",
  "contractName": "WavePortal",
  "sourceName": "contracts/WavePortal.sol",
  "abi": [
    {
      "inputs": [],
      "stateMutability": "payable",
      "type": "constructor"
    },
    {
      "anonymous": false,
      "inputs": [
        {
          "indexed": true,
          "internalType": "address",
          "name": "from",
          "type": "address"
        },
        {
          "indexed": false,
          "internalType": "uint256",
          "name": "timestamp",
          "type": "uint256"
        },
        {
          "indexed": false,
          "internalType": "string",
          "name": "message",
          "type": "string"
        }
      ],
      "name": "NewWave",
      "type": "event"
    },
    {
      "anonymous": false,
      "inputs": [
        {
          "indexed": true,
          "internalType": "address",
          "name": "previousOwner",
          "type": "address"
        },
        {
          "indexed": true,
          "internalType": "address",
          "name": "newOwner",
          "type": "address"
        }
      ],
      "name": "OwnershipTransferred",
      "type": "event"
    },
    {
      "inputs": [],
      "name": "getAllWaves",
      "outputs": [
        {
          "components": [
            {
              "internalType": "address",
              "name": "waver",
              "type": "address"
            },
            {
              "internalType": "string",
              "name": "message",
              "type": "string"
            },
            {
              "internalType": "uint256",
              "name": "timestamp",
              "type": "uint256"
            }
          ],
          "internalType": "struct WavePortal.Wave[]",
          "name": "",
          "type": "tuple[]"
        }
      ],
      "stateMutability": "view",
      "type": "function"
    },
    {
      "inputs": [],
      "name": "getTotalWaves",
      "outputs": [
        {
          "internalType": "uint256",
          "name": "",
          "type": "uint256"
        }
      ],
      "stateMutability": "view",
      "type": "function"
    },
    {
      "inputs": [
        {
          "internalType": "address",
          "name": "waver",
          "type": "address"
        }
      ],
      "name": "getWavesByUser",
      "outputs": [
        {
          "internalType": "uint256",
          "name": "",
          "type": "uint256"
        }
      ],
      "stateMutability": "view",
      "type": "function"
    },
    {
      "inputs": [
        {
          "internalType": "address",
          "name": "",
          "type": "address"
        }
      ],
      "name": "lastWavedAt",
      "outputs": [
        {
          "internalType": "uint256",
          "name": "",
          "type": "uint256"
        }
      ],
      "stateMutability": "view",
      "type": "function"
    },
    {
      "inputs": [],
      "name": "owner",
      "outputs": [
        {
          "internalType": "address",
          "name": "",
          "type": "address"
        }
      ],
      "stateMutability": "view",
      "type": "function"
    },
    {
      "inputs": [],
      "name": "prizeAmount",
      "outputs": [
        {
          "internalType": "uint256",
          "name": "",
          "type": "uint256"
        }
      ],
      "stateMutability": "view",
      "type": "function"
    },
    {
      "inputs": [],
      "name": "renounceOwnership",
      "outputs": [],
      "stateMutability": "nonpayable",
      "type": "function"
    },
    {
      "inputs": [
        {
          "internalType": "uint256",
          "name": "winnings",
          "type": "uint256"
        }
      ],
      "name": "setPrizeAmount",
      "outputs": [],
      "stateMutability": "nonpayable",
      "type": "function"
    },
    {
      "inputs": [
        {
          "internalType": "uint256",
          "name": "odds",
          "type": "uint256"
        }
      ],
      "name": "setWinningOdds",
      "outputs": [],
      "stateMutability": "nonpayable",
      "type": "function"
    },
    {
      "inputs": [],
      "name": "totalWaves",
      "outputs": [
        {
          "internalType": "uint256",
          "name": "",
          "type": "uint256"
        }
      ],
      "stateMutability": "view",
      "type": "function"
    },
    {
      "inputs": [
        {
          "internalType": "address",
          "name": "newOwner",
          "type": "address"
        }
      ],
      "name": "transferOwnership",
      "outputs": [],
      "stateMutability": "nonpayable",
      "type": "function"
    },
    {
      "inputs": [
        {
          "internalType": "string",
          "name": "_message",
          "type": "string"
        }
      ],
      "name": "wave",
      "outputs": [],
      "stateMutability": "nonpayable",
      "type": "function"
    },
    {
      "inputs": [
        {
          "internalType": "address",
          "name": "",
          "type": "address"
        }
      ],
      "name": "waveCountByUser",
      "outputs": [
        {
          "internalType": "uint256",
          "name": "",
          "type": "uint256"
        }
      ],
      "stateMutability": "view",
      "type": "function"
    },
    {
      "inputs": [],
      "name": "winningOdds",
      "outputs": [
        {
          "internalType": "uint256",
          "name": "",
          "type": "uint256"
        }
      ],
      "stateMutability": "view",
      "type": "function"
    }
  ],
  "bytecode": "0x608060405261002061001561004260201b60201c565b61004a60201b60201c565b601e600281905550655af3107a4000600381905550600060018190555061010e565b600033905090565b60008060009054906101000a900473ffffffffffffffffffffffffffffffffffffffff169050816000806101000a81548173ffffffffffffffffffffffffffffffffffffffff021916908373ffffffffffffffffffffffffffffffffffffffff1602179055508173ffffffffffffffffffffffffffffffffffffffff168173ffffffffffffffffffffffffffffffffffffffff167f8be0079c531659141344cd1fd0a4f28419497f9722a3daafe3b4186f6b6457e060405160405180910390a35050565b6119308061011d6000396000f3fe608060405234801561001057600080fd5b50600436106100ea5760003560e01c80638da5cb5b1161008c578063bd43a90811610066578063bd43a90814610227578063c6b571d314610245578063e119e60314610275578063f2fde38b14610291576100ea565b80638da5cb5b146101bb5780639a2cdc08146101d9578063a42a4663146101f7576100ea565b8063449d46c0116100c8578063449d46c01461015b5780635138653214610177578063715018a614610193578063785fa6271461019d576100ea565b806304b1be37146100ef578063291bcab31461010d578063361373f31461012b575b600080fd5b6100f76102ad565b60405161010491906113a1565b60405180910390f35b6101156102b3565b60405161012291906113a1565b60405180910390f35b61014560048036038101906101409190610f0d565b6102b9565b60405161015291906113a1565b60405180910390f35b61017560048036038101906101709190610f36565b6102d1565b005b610191600480360381019061018c9190610f77565b610632565b005b61019b6106fb565b005b6101a5610783565b6040516101b291906113a1565b60405180910390f35b6101c3610789565b6040516101d09190611274565b60405180910390f35b6101e16107b2565b6040516101ee91906113a1565b60405180910390f35b610211600480360381019061020c9190610f0d565b6107fd565b60405161021e91906113a1565b60405180910390f35b61022f610815565b60405161023c919061128f565b60405180910390f35b61025f600480360381019061025a9190610f0d565b610966565b60405161026c91906113a1565b60405180910390f35b61028f600480360381019061028a9190610f77565b610a2d565b005b6102ab60048036038101906102a69190610f0d565b610ac1565b005b60025481565b60015481565b60046020528060005260406000206000915090505481565b42610384600560003373ffffffffffffffffffffffffffffffffffffffff1673ffffffffffffffffffffffffffffffffffffffff1681526020019081526020016000205461031f91906114b3565b1061035f576040517f08c379a000000000000000000000000000000000000000000000000000000000815260040161035690611381565b60405180910390fd5b42600560003373ffffffffffffffffffffffffffffffffffffffff1673ffffffffffffffffffffffffffffffffffffffff1681526020019081526020016000208190555060018060008282546103b591906114b3565b92505081905550600460003373ffffffffffffffffffffffffffffffffffffffff1673ffffffffffffffffffffffffffffffffffffffff168152602001908152602001600020600081548092919061040c906115ea565b9190505550600660405180606001604052803373ffffffffffffffffffffffffffffffffffffffff16815260200183815260200142815250908060018154018082558091505060019003906000526020600020906003020160009091909190915060008201518160000160006101000a81548173ffffffffffffffffffffffffffffffffffffffff021916908373ffffffffffffffffffffffffffffffffffffffff16021790555060208201518160010190805190602001906104d0929190610dd8565b506040820151816002015550506104e5610bb9565b156105df5747600354111561052f576040517f08c379a000000000000000000000000000000000000000000000000000000000815260040161052690611301565b60405180910390fd5b60003373ffffffffffffffffffffffffffffffffffffffff1660035460405161055790611233565b60006040518083038185875af1925050503d8060008114610594576040519150601f19603f3d011682016040523d82523d6000602084013e610599565b606091505b50509050806105dd576040517f08c379a00000000000000000000000000000000000000000000000000000000081526004016105d490611321565b60405180910390fd5b505b3373ffffffffffffffffffffffffffffffffffffffff167f5f7e16dc676677766a70e9c5628aa6c54ddb8b6e5188e2ae1e1f17f1ffbea71642836040516106279291906113bc565b60405180910390a250565b61063a610c47565b73ffffffffffffffffffffffffffffffffffffffff16610658610789565b73ffffffffffffffffffffffffffffffffffffffff16146106ae576040517f08c379a00000000000000000000000000000000000000000000000000000000081526004016106a590611341565b60405180910390fd5b478111156106f1576040517f08c379a00000000000000000000000000000000000000000000000000000000081526004016106e890611361565b60405180910390fd5b8060038190555050565b610703610c47565b73ffffffffffffffffffffffffffffffffffffffff16610721610789565b73ffffffffffffffffffffffffffffffffffffffff1614610777576040517f08c379a000000000000000000000000000000000000000000000000000000000815260040161076e90611341565b60405180910390fd5b6107816000610c4f565b565b60035481565b60008060009054906101000a900473ffffffffffffffffffffffffffffffffffffffff16905090565b60006107f56040518060400160405280601781526020017f5765206861766520256420746f74616c20776176657321000000000000000000815250600154610d13565b600154905090565b60056020528060005260406000206000915090505481565b60606006805480602002602001604051908101604052809291908181526020016000905b8282101561095d57838290600052602060002090600302016040518060600160405290816000820160009054906101000a900473ffffffffffffffffffffffffffffffffffffffff1673ffffffffffffffffffffffffffffffffffffffff1673ffffffffffffffffffffffffffffffffffffffff1681526020016001820180546108c290611587565b80601f01602080910402602001604051908101604052809291908181526020018280546108ee90611587565b801561093b5780601f106109105761010080835404028352916020019161093b565b820191906000526020600020905b81548152906001019060200180831161091e57829003601f168201915b5050505050815260200160028201548152505081526020019060010190610839565b50505050905090565b60006109e66040518060400160405280601781526020017f55736572206861732077617665642025642074696d6573000000000000000000815250600460008573ffffffffffffffffffffffffffffffffffffffff1673ffffffffffffffffffffffffffffffffffffffff16815260200190815260200160002054610d13565b600460008373ffffffffffffffffffffffffffffffffffffffff1673ffffffffffffffffffffffffffffffffffffffff168152602001908152602001600020549050919050565b610a35610c47565b73ffffffffffffffffffffffffffffffffffffffff16610a53610789565b73ffffffffffffffffffffffffffffffffffffffff1614610aa9576040517f08c379a0000000000000000000000000000000000000000000000000000000008152600401610aa090611341565b60405180910390fd5b6064811115610ab757600080fd5b8060028190555050565b610ac9610c47565b73ffffffffffffffffffffffffffffffffffffffff16610ae7610789565b73ffffffffffffffffffffffffffffffffffffffff1614610b3d576040517f08c379a0000000000000000000000000000000000000000000000000000000008152600401610b3490611341565b60405180910390fd5b600073ffffffffffffffffffffffffffffffffffffffff168173ffffffffffffffffffffffffffffffffffffffff161415610bad576040517f08c379a0000000000000000000000000000000000000000000000000000000008152600401610ba4906112e1565b60405180910390fd5b610bb681610c4f565b50565b6000804442604051602001610bcf929190611248565b6040516020818303038152906040528051906020012060001c90506000606482610bf9919061163d565b9050610c3a6040518060400160405280601081526020017f506c61796572206f646473203d2025640000000000000000000000000000000081525082610d13565b6002548111159250505090565b600033905090565b60008060009054906101000a900473ffffffffffffffffffffffffffffffffffffffff169050816000806101000a81548173ffffffffffffffffffffffffffffffffffffffff021916908373ffffffffffffffffffffffffffffffffffffffff1602179055508173ffffffffffffffffffffffffffffffffffffffff168173ffffffffffffffffffffffffffffffffffffffff167f8be0079c531659141344cd1fd0a4f28419497f9722a3daafe3b4186f6b6457e060405160405180910390a35050565b610dab8282604051602401610d299291906112b1565b6040516020818303038152906040527f9710a9d0000000000000000000000000000000000000000000000000000000007bffffffffffffffffffffffffffffffffffffffffffffffffffffffff19166020820180517bffffffffffffffffffffffffffffffffffffffffffffffffffffffff8381831617835250505050610daf565b5050565b60008151905060006a636f6e736f6c652e6c6f679050602083016000808483855afa5050505050565b828054610de490611587565b90600052602060002090601f016020900481019282610e065760008555610e4d565b82601f10610e1f57805160ff1916838001178555610e4d565b82800160010185558215610e4d579182015b82811115610e4c578251825591602001919060010190610e31565b5b509050610e5a9190610e5e565b5090565b5b80821115610e77576000816000905550600101610e5f565b5090565b6000610e8e610e8984611411565b6113ec565b905082815260208101848484011115610ea657600080fd5b610eb1848285611545565b509392505050565b600081359050610ec8816118cc565b92915050565b600082601f830112610edf57600080fd5b8135610eef848260208601610e7b565b91505092915050565b600081359050610f07816118e3565b92915050565b600060208284031215610f1f57600080fd5b6000610f2d84828501610eb9565b91505092915050565b600060208284031215610f4857600080fd5b600082013567ffffffffffffffff811115610f6257600080fd5b610f6e84828501610ece565b91505092915050565b600060208284031215610f8957600080fd5b6000610f9784828501610ef8565b91505092915050565b6000610fac83836111ae565b905092915050565b610fbd81611509565b82525050565b610fcc81611509565b82525050565b6000610fdd82611452565b610fe78185611475565b935083602082028501610ff985611442565b8060005b8581101561103557848403895281516110168582610fa0565b945061102183611468565b925060208a01995050600181019050610ffd565b50829750879550505050505092915050565b60006110528261145d565b61105c8185611491565b935061106c818560208601611554565b6110758161172a565b840191505092915050565b600061108b8261145d565b61109581856114a2565b93506110a5818560208601611554565b6110ae8161172a565b840191505092915050565b60006110c66026836114a2565b91506110d18261173b565b604082019050919050565b60006110e96034836114a2565b91506110f48261178a565b604082019050919050565b600061110c6027836114a2565b9150611117826117d9565b604082019050919050565b600061112f6020836114a2565b915061113a82611828565b602082019050919050565b60006111526037836114a2565b915061115d82611851565b604082019050919050565b6000611175600083611486565b9150611180826118a0565b600082019050919050565b60006111986008836114a2565b91506111a3826118a3565b602082019050919050565b60006060830160008301516111c66000860182610fb4565b50602083015184820360208601526111de8282611047565b91505060408301516111f360408601826111fe565b508091505092915050565b6112078161153b565b82525050565b6112168161153b565b82525050565b61122d6112288261153b565b611633565b82525050565b600061123e82611168565b9150819050919050565b6000611254828561121c565b602082019150611264828461121c565b6020820191508190509392505050565b60006020820190506112896000830184610fc3565b92915050565b600060208201905081810360008301526112a98184610fd2565b905092915050565b600060408201905081810360008301526112cb8185611080565b90506112da602083018461120d565b9392505050565b600060208201905081810360008301526112fa816110b9565b9050919050565b6000602082019050818103600083015261131a816110dc565b9050919050565b6000602082019050818103600083015261133a816110ff565b9050919050565b6000602082019050818103600083015261135a81611122565b9050919050565b6000602082019050818103600083015261137a81611145565b9050919050565b6000602082019050818103600083015261139a8161118b565b9050919050565b60006020820190506113b6600083018461120d565b92915050565b60006040820190506113d1600083018561120d565b81810360208301526113e38184611080565b90509392505050565b60006113f6611407565b905061140282826115b9565b919050565b6000604051905090565b600067ffffffffffffffff82111561142c5761142b6116fb565b5b6114358261172a565b9050602081019050919050565b6000819050602082019050919050565b600081519050919050565b600081519050919050565b6000602082019050919050565b600082825260208201905092915050565b600081905092915050565b600082825260208201905092915050565b600082825260208201905092915050565b60006114be8261153b565b91506114c98361153b565b9250827fffffffffffffffffffffffffffffffffffffffffffffffffffffffffffffffff038211156114fe576114fd61166e565b5b828201905092915050565b60006115148261151b565b9050919050565b600073ffffffffffffffffffffffffffffffffffffffff82169050919050565b6000819050919050565b82818337600083830152505050565b60005b83811015611572578082015181840152602081019050611557565b83811115611581576000848401525b50505050565b6000600282049050600182168061159f57607f821691505b602082108114156115b3576115b26116cc565b5b50919050565b6115c28261172a565b810181811067ffffffffffffffff821117156115e1576115e06116fb565b5b80604052505050565b60006115f58261153b565b91507fffffffffffffffffffffffffffffffffffffffffffffffffffffffffffffffff8214156116285761162761166e565b5b600182019050919050565b6000819050919050565b60006116488261153b565b91506116538361153b565b9250826116635761166261169d565b5b828206905092915050565b7f4e487b7100000000000000000000000000000000000000000000000000000000600052601160045260246000fd5b7f4e487b7100000000000000000000000000000000000000000000000000000000600052601260045260246000fd5b7f4e487b7100000000000000000000000000000000000000000000000000000000600052602260045260246000fd5b7f4e487b7100000000000000000000000000000000000000000000000000000000600052604160045260246000fd5b6000601f19601f8301169050919050565b7f4f776e61626c653a206e6577206f776e657220697320746865207a65726f206160008201527f6464726573730000000000000000000000000000000000000000000000000000602082015250565b7f547279696e6720746f207769746864726177206d6f7265206d6f6e657920746860008201527f616e2074686520636f6e7472616374206861732e000000000000000000000000602082015250565b7f4661696c656420746f207769746864726177206d6f6e65792066726f6d20636f60008201527f6e74726163742e00000000000000000000000000000000000000000000000000602082015250565b7f4f776e61626c653a2063616c6c6572206973206e6f7420746865206f776e6572600082015250565b7f43616e2774206368616e6765207072697a6520746f206d6f7265206d6f6e657960008201527f207468616e2074686520636f6e7472616374206861732e000000000000000000602082015250565b50565b7f576169742031356d000000000000000000000000000000000000000000000000600082015250565b6118d581611509565b81146118e057600080fd5b50565b6118ec8161153b565b81146118f757600080fd5b5056fea2646970667358221220e671b17c696b53b9e7397773574e62f8636c6cd47e8fce79c145054b47ba685264736f6c63430008040033",
  "linkReferences": {},
  "deployedLinkReferences": {}
}